:020000040800F2
:10000000A8090020E1000008C9120008850D0008B9
:1000100000000000000000000000000000000000E0
:10002000000000000000000000000000651D000846
:10003000000000000000000099130008812E000855
:10004000F3000008F3000008F3000008F3000008C4
:10005000F3000008F3000008190D0008F300000881
:1000600000000000F3000008F3000008F30000089F
:10007000F3000008F3000008F3000008000000008F
:10008000F3000008F300000800000000F30000087F
:10009000F3000008F3000008F3000008F300000874
:1000A000F3000008F3000008F3000008352F0008F3
:1000B0005D300008000000000000000000000000AB
:1000C000F300000800000000F30000080348854624
:1000D00000F0DCFB00480047E5360008A8090020D6
:1000E0000448804704480047FEE7FEE7FEE7FEE7D6
:1000F000FEE7FEE7892E0008CD00000803460B430B
:100100009B0703D009E008C9121F08C0042AFAD2CD
:1001100003E00B780370401C491C521EF9D2704753
:10012000D2B201E00270401C491EFBD2704700228F
:10013000F6E710B513460A4604461946FFF7F0FFE6
:10014000204610BDF0B507460846584087B0C00F9E
:10015000049048000E46590040084908BC1A8841DE
:1001600005D2384631461E4617460B460246580011
:10017000400810434CD0300D039040055900400D0D
:10018000490D0590401A0290402872DA18030121A7
:10019000000B09050843019004980092002805D03F
:1001A000019952420020884100920190029840211A
:1001B0000A1A0199009800F04BFA05460C466B4666
:1001C00007CB00F066FAC0197141039A0E0D0023A7
:1001D000D71756401A467A40164344D0049A002A4C
:1001E0002DD0029A012A039A15DC1205C01A9141FA
:1001F00001263605001C7141D20F059ED2070093DF
:10020000019202962A46234600F0A4FA07B0F0BDF8
:1002100038463146FAE71605224A0F46B218C01A88
:10022000B74101210905001C4F4100187F411146CB
:1002300018187941E20F10436D19644113E0E20789
:100240006D0815436408C2071443039A012612057A
:10025000C01A91413605001C7141CE074008304359
:100260004908C01851412A46234600F066FACDE7F6
:10027000FFE7049801224000C117121A00238B41A6
:1002800004983146C417381AA141EEE730B401246E
:10029000E407634030BC55E730B40124E407614013
:1002A00030BC4FE70000E0FFF0B51FB488B00B99F9
:1002B0000998002448400999C00F4900490809914C
:1002C000C0070B990090490049080B9109990898BB
:1002D000A64608431CD00B990A98084318D00998E1
:1002E00001244000420D4800410D099824050003F7
:1002F000000B204309900B980003000B20430B9048
:1003000050181C494018002201901446104605E080
:10031000002001460DB0F0BD032801DA034600E0DD
:1003200003239C46C11A0AAE0AE05F0008ADED5BEC
:100330004F00F75B7D430027AA187C41491C5B1ED8
:100340006145F2DD410004AB5A522104120C0A430C
:10035000240C401C0828DFDB0198029000997046AD
:1003600001910090059B049A0799069800F0F2F914
:10037000D0E700000DFCFFFFF0B50C465C4085B0F7
:10038000E40FE40703944C000026640859009446E7
:10039000490802460296224321D062460A431ED0F3
:1003A0006200570D4A000E032303550D0124024637
:1003B0002C492405781B1B0B360B4018234326437E
:1003C000614600901C46501AB44103D30098401C6B
:1003D000009002E0921800985B41002803DA0020A8
:1003E000014605B0F0BD00200121090507468646FB
:1003F00011E064461D46141BB54106D36546521BE9
:10040000B341744607430C43A646CD07400849084C
:10041000284392185B4105460D43EAD11046184324
:1004200013D06046194650407140084306D06046DC
:10043000101AB34106D20122002306E00022012354
:10044000DB0702E00122D2435310009874460105F5
:10045000381C6141029C039D0019694100F06DF94F
:10046000BFE70000FD03000010B5002904DB0C46C7
:100470000121C9074042A141002B04DB1C46012396
:10048000DB075242A341101A8B4101D2012010BD5B
:10049000002010BD10B5002904DB0C460121C9075E
:1004A0004042A141002B04DB1C460123DB075242E2
:1004B000A341801A994101D2012010BD002010BD36
:1004C000C217C10F504010B54018CA07962300212B
:1004D00000F0FAF810BD00000EB5C217C10F504071
:1004E000CA0740180021054B0293019200910A4669
:1004F0000B4600F02FF903B000BD000033040000EC
:100500000EB505490291002100910A460B46019162
:1005100000F020F903B000BD33040000C20F410019
:1005200040020123400ADB05D207090EC0187F29CB
:1005300001DA00207047962903DC9623591AC84037
:1005400001E096398840002AF4D04042704700000C
:100550004A0009030123090B1B051943094B10B578
:10056000520D9A4201DA002010BD064B34339A42F4
:1005700003DC9A1A00F07CF810BD0349511888403A
:1005800010BD0000FF030000CDFBFFFFCB0FDB071A
:10059000490010B5490802460A4307D00A0D07244E
:1005A0000903E401090B121B002A01DC002010BD25
:1005B000C900440F0C43C100E018D205801800F0B8
:1005C0007BF810BD30B50B460146002020220124E7
:1005D00009E00D46D5409D4205D31D469540491B77
:1005E0002546954040191546521E002DF1DC30BDC0
:1005F000F0B51FB40646002082B0054640240191A4
:1006000000901BE0019922460F46304600F030F87A
:10061000049A059B801A994110D310461946224628
:1006200000F016F8361A8F4101972246012000216A
:10063000009F00F00DF838184D4100902046641ED0
:100640000028DFDC019B00982946324607B0F0BD48
:1006500010B5202A04DB0146203A9140002010BD4D
:10066000914020239C1A0346E3401943904010BD5B
:1006700010B5202A04DB0846203AD040002110BDE6
:100680000B46D340D0402024A21A9140084319467B
:1006900010BD10B5202A06DBCB170846203A1041C2
:1006A000C1170B4306E00B461341D0402024A21A89
:1006B00091400843194610BD002904DA401C490046
:1006C00001D140084000704770B40024050C05D1EA
:1006D0001024000402D1002921D01124050E01D1DB
:1006E00000020834050F01D10001241D850F01D13E
:1006F0008000A41C002801DB4000641C002908D0F5
:1007000020252E1B0D46F540A14000D00121294394
:10071000084301061B1B000ADB1D02D5002070BC2C
:100720007047DB05181880180029F8DA401C4900CA
:10073000F5D170BC40084000704710B5002B08DAB6
:100740000024401C614192185B411A4301D14008CA
:10075000400010BDF0B51FB482B005460C0003D0B8
:10076000084603F0DDFF02E003F0DAFF2030024626
:10077000009021462846FFF76BFF049B059A04462C
:100780000F4618431143084314D0184610431BD09A
:10079000009840210A1A18460599FFF769FF054697
:1007A0000E46009A05990498FFF752FF084305D0BA
:1007B000012004E02046394607B0F0BD0020C117F3
:1007C00005430E432C43374300990E986305401AA6
:1007D0007905E40A00220C43FD0A0A3002D5002004
:1007E0000146E9E70105101969410C9C0D9D0019AE
:1007F0006941FFF7A2FFDFE770B54B005B080343D9
:100800000BD04B005C0D002633466542B341D41734
:10081000AD1AA34102DB0020014670BD120530185D
:10082000514170BD4A0009030123090B1B051943FF
:100830000A4B10B5520D9A4202DA0020014610BD53
:10084000064B34339A4203DC9A1AFFF711FF10BDAE
:10085000034BD218FFF7FCFE10BD0000FF030000A1
:10086000CDFBFFFF10B5002904DB0124E407404263
:100870008C412146002B04DB1C460123DB0752423E
:10088000A341994200D1904210BD0000064C0125C1
:10089000064E05E0E36807CC2B430C3C9847103428
:1008A000B442F7D3FFF716FC1C5F00083C5F00085A
:1008B000FEB500231A461B1A8A4103DB00200146BD
:1008C00003B0F0BD4A000D0301212D0B0905520DA7
:1008D0000D43D10702D100186D41521E5110FF3156
:1008E000FF310131002704463E463846009701910A
:1008F0000246012100200905FFF7BAFEC319714124
:10090000F818324684468E464A4161462846611AA6
:10091000904104D36046241A954176461F46241917
:1009200000986D41401C00903428E1DDF9193046F3
:100930007041091BA84103D20022D243134601E0B3
:100940000022134601980105381C7141FFF7F5FE9E
:10095000B6E7000010B586B0A4480021012280232C
:100960000590049302F02EFE4021059802F0E6FD6A
:10097000052000F0B9F90598049902F00EFE01284F
:1009800004D1FFE712480121016003E01048002173
:100990000160FFE795484021039002F0C7FD052064
:1009A00000F0A2F9012100208022039B029018464A
:1009B000029C01922246019B02F004FE032203984E
:1009C0000299019B02F046FE0148006806B010BD86
:1009D000A405002080B58AB008A8002101708348D2
:1009E0000122802306900591049302F0EBFD069806
:1009F000049902F0A3FD09A805990170FFE709A871
:100A0000007807282DDCFFE70898400008A9087047
:100A100076484021039002F091FD052000F064F932
:100A20008021039802F0B9FD012804D1FFE707A84F
:100A30000121017003E007A800210170FFE707987A
:100A40000899014308A801706848402102F06EFD32
:100A5000052000F049F9FFE70998401C09A9087032
:100A6000CDE7624801210022802302900192009389
:100A700002F0A8FD032202980199009B02F0EAFD12
:100A800008A800780AB080BD80B588B007905748A4
:100A900001210022802306900592049302F092FD2A
:100AA000032206980599049B02F0D4FD07980128BB
:100AB00005D1FFE74D48802102F040FD0AE007988C
:100AC000002805D1FFE74948802102F02FFD00E012
:100AD00012E0FFE7454840210390029102F02EFD0D
:100AE0000520019000F000F90398029902F01EFD24
:100AF000019800F0F9F8FFE708B080BD80B586B036
:100B0000014605AA107004A800220270FFE704A89D
:100B1000007807282BDCFFE705A8007800060028EE
:100B200005D5FFE73148802102F008FD04E02F4899
:100B3000802102F0FBFCFFE70598400005A9087042
:100B40002A4840210390029102F0F8FC0520019010
:100B500000F0CAF80398029902F0E8FC019800F04E
:100B6000C3F8FFE70498401C04A90870CFE7FFF71B
:100B7000F1FE06B080BDC04680B584B01B48802120
:100B80000390029102F0DAFC40200399019008469C
:100B9000019902F0D3FC0520009000F0A5F803981D
:100BA000029902F0C3FC009800F09EF803980199A6
:100BB00002F0BCFC04B080BD80B584B00B4880213D
:100BC0000390029102F0B2FC4021039802F0B6FCBF
:100BD0000520019000F088F80398029902F0AEFC1D
:100BE000019800F081F804B080BDC04600040048C0
:100BF00081B0EFF3108072B6009009480178491C6B
:100C0000017001B07047C04605480178491E017067
:100C10000078002802D1FFE762B6FFE77047C046C0
:100C20002101002010B585B00A46049003A8017088
:100C300001A80021017068460170039B02AC23707B
:100C40000170FFE76846007801282FDCFFE7049871
:100C500069460978405C0299414002A8017001A8E8
:100C600000210170FFE701A80078072818DCFFE7E2
:100C700002A800780006002807D5FFE70298400088
:100C80003121484002A9087004E00298400002A9FE
:100C90000870FFE7FFE70198401C01A90870E2E730
:100CA000FFE70098401C69460870CBE702A800786F
:100CB00005B010BD82B0019000200090FFE70198C0
:100CC000411E019100280BD0FFE706480090FFE786
:100CD0000098411E0091002801D0FFE7F8E7EEE7F9
:100CE00002B070478D15000082B001900020009086
:100CF000FFE70198411E019100280BD0FFE7052076
:100D00000090FFE70098411E0091002801D0FFE706
:100D1000F8E7EEE702B0704780B582B0042002F039
:100D200065FB002808D0FFE701F0D6F90421019007
:100D3000084602F053FBFFE702B080BD80B582B0E9
:100D4000014601AA1080FFE70D48022103F052F985
:100D5000002801D1FFE7F7E701A80188084803F060
:100D6000FDF8FFE70648012103F044F9002801D10E
:100D7000FFE7F7E7024803F0C9F802B080BDC046BC
:100D800000300140FFE7FEE780B586B00920C006CD
:100D90000121002241F20003059004910392029385
:100DA00002F010FC032205980399029B02F052FC0A
:100DB00040F60000059901900846019902F0B6FB43
:100DC00002200090FFF790FF0598029902F0AEFB19
:100DD0000098FFF789FF0598019902F0AFFB009892
:100DE000FFF782FF0598019902F0A0FB0498FFF736
:100DF0007BFF06B080BD000080B584B00C4802F0D7
:100E0000C5FF0920C0060121002241F6000303901E
:100E10000292019302F0D6FB032203980299019BF0
:100E200002F018FC0398019902F088FB04B080BD21
:100E30001105000080B586B00920C00601210022FE
:100E400041F20003059004910392029302F0BAFB71
:100E5000032205980399029B02F0FCFB40F6000078
:100E6000059901900846019902F060FB022000906C
:100E7000FFF73AFF0598029902F060FB0098FFF730
:100E800033FF0598019902F059FB0098FFF72CFFFA
:100E90000598019902F04AFB0498FFF725FF06B078
:100EA00080BD80B586B005A8002101700920C0066C
:100EB000012241F200030391029202F083FB0298A7
:100EC000FFF712FF04A803990170FFE704A8007858
:100ED00007282ADCFFE70920C00640F60001019040
:100EE000009102F023FB0220FFF7FEFE019800991B
:100EF00002F024FB0598400005A9087041F20001AA
:100F0000019802F04AFB002806D0FFE7059801216E
:100F1000084305A90870FFE70120FFF7E5FEFFE79A
:100F20000498401C04A90870D0E70920C00640F6C8
:100F3000000102F0FBFA05A8007806B080BD10B5EC
:100F40008AB0014609AA10700920C00601220023B8
:100F500041F200040790069111461A460593234674
:100F6000049402F02FFB032207980599049B02F0DA
:100F700071FB40F60001079802F0D8FA08A805991D
:100F80000170FFE708A80078072834DCFFE709A80C
:100F900000780006002807D5FFE70920C00641F2C7
:100FA000000102F0CBFA06E00920C00641F2000180
:100FB00002F0BCFAFFE70998400009A90870022076
:100FC0000390FFF791FE0920C00640F60001029051
:100FD000019102F0B3FA0398FFF786FE0298019997
:100FE00002F0A4FA0398FFF77FFEFFE70898401C81
:100FF00008A90870C6E70AB010BD80B586B0092000
:10100000C0060121002241F20003059004920393DF
:1010100002F0D8FA032205980499039B02F01AFB08
:101020000598039902F08AFA40F6000005990290AB
:101030000846029902F082FA04200190FFF754FE5C
:101040000598039902F072FA0198FFF74DFE059892
:10105000029902F06BFA06B080BD80B586B0092017
:10106000C0060121002241F200030590049203937F
:1010700002F0A8FA032205980499039B02F0EAFA09
:1010800040F60000059902900846029902F04EFAD7
:101090000598039902F04AFA04200190FFF724FE14
:1010A0000598029902F04AFA0198FFF71DFE05988B
:1010B000039902F043FA0198FFF716FE06B080BDCF
:1010C00080B58AB008A8C82101700920C006012196
:1010D000002241F20003079006910592049302F06A
:1010E00071FA032207980599049B02F0B3FA079856
:1010F000049902F023FA0698FFF7F6FD40F6000186
:10110000079802F013FA0698FFF7EEFD0798059985
:10111000069A049B02F056FA0698FFF7E5FDFFE7F2
:101120000920C00641F2000102F037FA00281BD066
:10113000FFE70898401E08A9087001200391FFF7F7
:10114000D3FD0398017800290AD1FFE70920C006E2
:1011500040F6000102F0EAF909A8012101701DE042
:101160000120FFF7C1FDDBE701200290FFF7BCFD86
:101170000920C00640F600010190009102F0DEF95E
:101180000298FFF7B1FD0198009902F0CFF902989B
:10119000FFF7AAFD09A800210170FFE709A8007860
:1011A0000AB080BD80B584B0464802F0EFFDCD485E
:1011B00001210022C023039002910192009302F0CA
:1011C00001FA032203980199009B02F043FA029866
:1011D00001F017FEB420FFF76DFD04B080BDC046DE
:1011E00080B58AB0364802F0D1FD364802F0CEFD17
:1011F00040F2006002F0CAFDBA483121099008911E
:1012000002F094F90920C00603210790069102F02C
:101210008DF940F20020099905900846059902F0E1
:101220008DF901200021099A04901046049B039136
:101230001946039A089B02F0C5F9302309980399CF
:10124000039A02F007FA07980499039A069B02F0A2
:10125000B9F907980399039A069B02F0FBF902205B
:101260000999029008460399039A029B02F0AAF991
:1012700004200999019008460399039A019B02F002
:10128000A1F90620039902F0C9FB0498029902F023
:10129000A3FF01980399039A02F034F8019802F031
:1012A0009DF809980499039A059B02F08BF9099817
:1012B0000399069A059B02F0CDF90AB080BDC0469D
:1012C00011050000120500007047000080B582B0D3
:1012D000214803F015FA694600220A70009A042397
:1012E0001A430A701D49097801290BD1FFE71C48F0
:1012F00001781A480C2282560D23C3561A4803F06F
:10130000FFF910E01548007800280BD1FFE71448DA
:1013100001781248052282560623C356114803F06D
:10132000EFF9FFE7FFE7114803F0EAF90021019127
:10133000FFE701980A49097888420BDAFFE701982C
:101340000B49095C0B4803F0DBF9FFE70198401CEF
:101350000190EEE702B080BD965D000828010020F4
:101360003C010020615D00083E5D00085B5E0008F6
:101370003D010020655E000880B582B001A8002113
:1013800001700199042211430170024803F0B8F979
:1013900002B080BDA05D00087047000010B586B0A7
:1013A00004900498002804D1FFE705A81F210170CC
:1013B0003AE003A800210170FFE703A80078142891
:1013C00030D8FFE7049803A90978C900184A515892
:1013D000884221D3FFE7049803A90978C900144A79
:1013E00089188968884217D2FFE703A80178C900E5
:1013F0000F4A8918CB6889680E4C029020460192EA
:101400001A4603F07DF902990A78D200019BD2189E
:10141000127B05AC227007E0FFE70398401C03A98C
:101420000870CAE7FFE7FEE705A8007806B010BD20
:10143000305C0008C15E000880B584B00E4803F03F
:101440005FF9039000F034FE0020029001F0ECFA06
:10145000012001F071FA0298029900F0D3FF0421F3
:10146000029801F02FFB054801900199029A029B16
:1014700001F024F804B080BDA65E0008FFFF000064
:1014800080B586B00A46059004A801701548202151
:101490000390029202F04AF81021039802F04EF8ED
:1014A000114800210190019A00911146009A009B79
:1014B00001F004F800F090FD012804D1FFE7049842
:1014C000EC49C87303E00498EA490872FFE7E94869
:1014D00001F072F9059804A90978002200F07EFF56
:1014E00006B080BD000400480102000080B584B051
:1014F000014603AA107010780028029005D0FFE77B
:101500000298012809D0FFE7FFE70020019001F0D1
:10151000E5F925480199417017E00120009001F09C
:10152000DDF921484178009A11400078104081424D
:101530000AD0FFE71C480178012211404170407831
:10154000104000F005F8FFE7FFE704B080BDC0469B
:1015500010B584B0014603AA10701078012318401A
:10156000114C20706070184602910192FFF7BEFF87
:1015700001980178C90700290AD0FFE740F24070BE
:10158000342101F0E8FB0948442101F0E4FB09E0C3
:1015900040F24070142101F0DEFB0448242101F0E8
:1015A000DAFBFFE704B010BD0B000020410700008C
:1015B000F0B5ABB0399C389D379E369F1B9035985F
:1015C0001A9034981990339818903298179031984F
:1015D00016903098159314901B9813902AA8129087
:1015E0001B9811911299087011992991289227AA94
:1015F0001598107026AA1698108025AA17981080A2
:1016000024AA1898107023A81999017022A81A9971
:10161000017021A8077020A806701FA805701EA8D9
:101620000470007801242040904C20701078C0078E
:10163000002804D0FFE723988D49087003E08C4808
:10164000FF210170FFE72AA800780028109005D03C
:10165000FFE71098012800D18FE005E100200F90EE
:1016600001F0FEF9834828210F9A4254014628319F
:10167000289B4B600B230B73299B0E9018460D91F2
:10168000FFF78CFE0D9948730F980E9A1070269BE9
:10169000DB00538004231371202353719071249B2A
:1016A00001249C43D471724B1B78137222AB1B78BC
:1016B000DB07002B04D0FFE7FA480221417203E068
:1016C000F84801214172FFE7F648002181720C9031
:1016D0000B9100F0EFF928200C99085C2831421E8C
:1016E00090410A91FFF702FF0A9800F02DFF0C9835
:1016F00001F062F81CA812210170342141705621BA
:1017000081707821C1709A210171BC214171DE2163
:101710008171F021C17101F0B1F9E54909900846E4
:1017200001F042FA25A80088FEF7D6FE289A089014
:1017300010460791FEF7E4FE514A0B9B06901846AF
:1017400005911146069A059BFEF716FE4D4B0B9A26
:10175000FEF7AAFD089A04901046079B03911946CC
:10176000049A039BFEF7A0FD474B0B9AFEF79CFDE6
:10177000FEF7EEFE4049086076E0002001F070F9C7
:1017800025A8007800F0D1FEC64828210122425445
:101790002830289901742999C34A515C41742799CA
:1017A00081742998002808D1FFE728980B280CD0CD
:1017B000FFE728980C2808D0FFE72998012809D1CD
:1017C000FFE728980C2805D1FFE7B6483B21012206
:1017D000425404E0B3483B2100224254FFE7B148A1
:1017E000012101703821405C052806D0FFE7AD4893
:1017F0003821405C06280ED1FFE726A800880B2878
:1018000004DCFFE7A7480C21818103E02698A54965
:101810008881FFE703E02698A2498881FFE724A892
:101820000078012108409F4A9073A0480078D07347
:1018300022A80078084010741FA80078084050744F
:101840002820105C11462831431E984102920191D4
:10185000FFF74CFE019800F077FE029800F0ACFF15
:10186000054806490160FFE72BB0F0BD0D000020E0
:1018700008000020400200203C020020FFFF000082
:101880000000F03F0000204000408F40F0B5A1B0C4
:101890002E9C2D9D2C9E2B9F13902A981290299858
:1018A00011902898109027980F9026980E910D90DF
:1018B00013980C9020A80B9013980A910B9908701C
:1018C0001FA80E9901701E921D931CA80F9A0270FA
:1018D0001BA8109B03801AA81199017019A81299CE
:1018E000017018A8077017A8067016A805700B9845
:1018F0000578002D099504D0FFE7099801285BD0F1
:10190000C9E0684828210022425401462831269B1C
:101910004B600B230B731D9B089018460792069192
:10192000FFF73CFD069948731E9888600798089A4F
:1019300010701B9BDB005380042313711823537119
:1019400090711A9B01249C43D47119AB1B78DB075F
:10195000002B04D0FFE75348F221417203E05148C5
:1019600001214172FFE74F4801218172059000F08B
:10197000A1F828200599085C2831421E9041049165
:10198000FFF7B4FD049800F0DFFD059800F014FFA8
:1019900014A8C12101709422427081700021C1708D
:1019A000017141718171C17101F068F84049039082
:1019B000084601F0F9F86EE03A4828210122425425
:1019C0002830269901741D99374A515C41741C993D
:1019D00081741D98002808D1FFE726980B280CD0A9
:1019E000FFE726980C2808D0FFE71D98012809D1A9
:1019F000FFE726980C2805D1FFE72A483B21012262
:101A0000425404E027483B2100224254FFE7254886
:101A1000012101703821405C052806D0FFE72148EC
:101A20003821405C06280ED1FFE71BA800880B2850
:101A300004DCFFE71B480C21818103E01B98194956
:101A40008881FFE703E01B9816498881FFE71AA801
:101A5000007801210840134A907314480078D0732D
:101A600019A800780840107416A80078084050742F
:101A7000029200F01FF828200299085C2831421ECB
:101A800090410191FFF732FD019800F05DFD029851
:101A900000F092FEFFE71FA8007840B200F0B6FF0A
:101AA00021B0F0BD40020020285C000808000020A2
:101AB000FF01000080B5002000F0B6FF80BD0000EF
:101AC00080B594B01290119110A8002101700EAA57
:101AD00091800E910B910A910991089107900692BD
:101AE000FFF78BFA4EF2000000F0FEF8079908703D
:101AF000FFF783FA0620069900F0B2F807990870FC
:101B0000FFF7ABFAFF210698FFF78CF806998A7861
:101B100090420DD1FFE70EA8C11CFF220590084698
:101B20001146FFF77FF805994A79904209D0FFE7FF
:101B300010A801783F4802F0E3FD13A901220A70C2
:101B400067E00E9800020EA94A7880180DAA10804E
:101B500010880491FEF7D4FC0022304B0392FEF76C
:101B6000A3FB2F4A039B02921A46029BFEF704FC3A
:101B70002C4B039AFEF7E6FA0B910A900498C17871
:101B80000902027989180CAA11801088FEF7B8FCA6
:101B9000254B039AFEF788FB039A029BFEF7ECFBAA
:101BA000099108900A980B99204B039AFEF75CFC68
:101BB00000282AD1FFE70A980B9900221C4BFEF758
:101BC00069FC002821D1FFE70898099900220192B9
:101BD000019BFEF749FC002817D1FFE708980999F7
:101BE0000022114BFEF756FC00280ED1FFE70A98A1
:101BF0000B99129A5160106008980999119A5160D6
:101C0000106013A80021017003E013A801210170E6
:101C1000FFE713A8007814B080BDC04600E065401F
:101C2000E0FFEF40008046C000005940000034C093
:101C300000405F40045F000880B582B0FFF7DCF829
:101C4000FFF7DBF9054800F04FF801A90870009193
:101C5000FFF703FA0098007802B080BD2022000050
:101C600080B586B0024604AB187003913548007801
:101C70004000401CC0B20092FFF761F9FFF720FA64
:101C800002A908700878002804D0FFE705A8012100
:101C9000017025E001A800210170FFE701A800788C
:101CA00004A90978491E88420EDAFFE7FFF7F9F820
:101CB000039901AA12788854FFF766F8FFE70198A4
:101CC000401C01A90870E9E7FFF7EBF8039901AAA6
:101CD00012788854FFF7AEF805A800210170FFE7DD
:101CE00005A8007806B080BD80B586B0014605AA7B
:101CF0001080507804AA1070059850701148007830
:101D00004006000E02910192FFF719F9FFF7D8F98A
:101D100003A90870019800780091FFF710F9FFF708
:101D2000CFF9039901430098017001994878FFF7B2
:101D300006F9FFF7C5F9039901430098017000788F
:101D400006B080BD1400002080B582B00448FFF7C3
:101D5000CBFF14210190084601F0B8FA02B080BD13
:101D6000A2300000704780B50920C006012101F0B3
:101D7000E5FB80BD80B582B0019001983949884269
:101D800006D3FFE76846E1210170E921417062E076
:101D900001983549884206D3FFE76846D72101708C
:101DA000D821417056E001983049884206D3FFE7B8
:101DB0006846C1210170C52141704AE001982C4953
:101DC000884206D3FFE76846752101708121417082
:101DD0003EE001982749884206D3FFE768466B2119
:101DE00001706F21417032E00198234988420BD382
:101DF000FFE76846652101706821417001784278EB
:101E0000204802F07DFC21E001981C4988420BD358
:101E1000FFE768466B2101706F21417001784278BD
:101E2000184802F06DFC10E00198154988420BD368
:101E3000FFE768466B2101706F214170017842789D
:101E4000104802F05DFCFFE7FFE7FFE7FFE7FFE771
:101E5000FFE7FFE7FFE798206946022200F039FF1D
:101E600002B080BD01E9A43581F8A9328144E52D95
:101E7000010B6B1B41FC5419811A7018C153421895
:101E80000184D717E45E000880B500F033F800281D
:101E900005D0FFE700F02EF8062805D1FFE700F097
:101EA000BDFEFFF760FFFFE700F0AAFE80BD80B532
:101EB00084B0014603AA1080507802AA10700398DB
:101EC00050700220019000911146019A00F001FF2C
:101ED00004B080BD80B582B0122001A90222009119
:101EE00000F0C9F90098017809024278881802B018
:101EF00080BD0000774800787047C04680B582B04A
:101F00000190044802F0FCFB02210090084602B058
:101F100080BDC0468C5E000880B584B0039014205C
:101F200002A9032200F0A7F900F056F803990870FF
:101F3000039800780028019008D0FFE70198012855
:101F400016D0FFE701980F2837D035E002980399A3
:101F5000087102A8417849424908039A9171807832
:101F600040424008039948710398002181602FE0A6
:101F700002A8017849424908039A117340787F28E2
:101F800006DCFFE702A8407880080399487308E060
:101F900002A84078FF21C943084380100399487381
:101FA000FFE702A8807840424008039988730948F7
:101FB0000068039908610BE0FFE7039800210161C5
:101FC000C16081604160016003980F210170FFE7EB
:101FD00004B080BD1C010020014800787047C04655
:101FE0002301002080B588B013460690059104A80F
:101FF000027003A900220A70059A0290104601930C
:1020000000F01AF80598007802990A78904204DDE9
:10201000FFE707A8012101700AE003A800780699EC
:10202000059A127800F0E4F807A800210170FFE794
:1020300007A8007808B080BD80B584B003900291F5
:10204000132001A9022200F016F9FFF7C5FF0128AD
:102050000DD1FFE70B4800F04CF9C009012806D16B
:10206000FFE7094800F045F90399087003E001987B
:1020700003990870FFE701A840780299087004B03E
:1020800080BDC046040700000207000080B584B090
:1020900002A800210170C021012201900846019987
:1020A00000F0E9F8029803A90870039804B080BD15
:1020B00080B582B000F078F900F0B0FD002000F0AB
:1020C000B3FC0120019000F0EBF902480199017086
:1020D00002B080BD2201002080B584B0FFF7FAFE77
:1020E00003A9088038480291FFF7E1FE02980188B1
:1020F000C90700290BD0FFE7344801210170B64819
:1021000040F2002101F022FAFFF736F9FFE703A8B9
:1021100000888005002807D5FFE72D4801210170C0
:102120002C4802F0EDFAFFE703A80088800700289A
:1021300015D5FFE728482949FF22FFF753FF284913
:1021400001900846FFF7E8FEA34840F2002101F0A5
:10215000FDF9FFF7BBF8234801210170FFE703A851
:1021600000884006002807D5FFE71F4802F0C8FA9C
:102170001E4901220A70FFE703A800880006002814
:1021800008D5FFE703A80088C005002801D5FFE7B0
:10219000FFE7FFE703A800884007002802D5FFE714
:1021A00000BFFFE703A800880007002802D5FFE76B
:1021B00000BFFFE703A80088C006002802D5FFE79C
:1021C00000BFFFE704B080BDFFFF00007C020020DD
:1021D0007D020020B45D00083D0100203C0100208C
:1021E0002801002024010020AA5D00081A01002017
:1021F000B0B58AB01346044609AD2870089107A807
:102200000270059304940395FFF73EFE0920C00673
:10221000022101F08BF91E20FEF790FD03990A7848
:1022200002901046FEF78AFD0021019008460091B9
:10223000FEF784FD06A9009A0A80FFE706A8008839
:1022400007A9097888420DDAFFE70020FEF776FD3E
:10225000089906AA12888854FFE70698401C06A928
:102260000880EBE70920C006022101F067F900F0C1
:10227000C7FC0AB0B0BDB0B58AB01346044609AD7C
:102280002870089107A80280059304940395FFF72E
:10229000FBFD0920C006022101F048F903980078EF
:1022A000FEF74CFD0021029008460191FEF746FD25
:1022B00006A9019A0A80FFE706A8008807A90988ED
:1022C00088420DDAFFE70020FEF738FD089906AADC
:1022D00012888854FFE70698401C06A90880EBE79F
:1022E0000920C006022101F029F900F089FC0AB09A
:1022F000B0BD80B584B0014603AA1080108802AA40
:1023000001230191114600921A4600F004F800984A
:10231000007804B080BDB0B58CB0134604460BAD58
:1023200028800A9109A80280079306940595FFF773
:10233000ABFD0920C006022101F0F8F81D20FEF7D0
:10234000FDFC05994A7804901046FEF7F7FC0599C4
:102350000A7803901046FEF7F1FC0021029008462F
:102360000191FEF7EBFC08A9019A0A80FFE708A893
:10237000008809A9098888420DDAFFE70020FEF7E6
:10238000DDFC0A9908AA12888854FFE70898401CC7
:1023900008A90880EBE70920C006022101F0CEF869
:1023A00000F02EFC0CB0B0BD80B584B00A200390C4
:1023B000FEF780FC084801210290019101F0B6F877
:1023C0001420FEF777FC0298019901F0B7F8039802
:1023D000FEF770FC04B080BD0004004880B586B0F4
:1023E0000B46059004A801700392059900780290AD
:1023F00008460299019300F08DFA039800F04AFB19
:1024000006B080BD10B586B00A46034605AC207004
:1024100004A80170059803A90870049848708F20DB
:10242000022402922246019300F053FC06B010BD34
:1024300080B584B0014603AA1080507802AA1070BB
:10244000039850700191FFF7C7FD002806D1FFE700
:10245000044802A9022200F092FC00E0FFE704B069
:1024600080BDC046BE06000080B584B0014603AA08
:102470001080507802AA1070039850700191FFF7F5
:10248000ABFD002806D1FFE7044802A9022200F0B4
:1024900076FC00E0FFE704B080BDC046BC0600004B
:1024A00080B582B0014601AA10709D2001230091E1
:1024B00011461A4600F00DFC02B080BDF0B591B097
:1024C0001C4615460E4607460A9010A809900A9821
:1024D0000891099908800FA8089901800EA90A801F
:1024E0000DAA1380099B5B7807900BA80370109BC3
:1024F0004370079B5B7883700F9BC37049780171B1
:102500000E994171517881710D99C1710821069020
:102510000846069A05911146059A04940395029679
:10252000019700F0D6FB11B0F0BD80B582B0014636
:1025300001AA1070A0200123009111461A4600F054
:10254000C8FB02B080BD0000B0B594B0139000206D
:10255000119010900F90ED480078139909788842F7
:1025600005D0FFE71398007800F0B8F9FFE713985B
:10257000007800280E9009D0FFE70E98012863D05C
:10258000FFE70E980F2800D1D2E0D0E012A8082172
:10259000017013984068FDF7B3FF00226D4B0D905A
:1025A00010460C9119460D9C0B9222460C9D0A93E5
:1025B0002B46FDF7E1FE684B0B9AFDF775FEFDF724
:1025C000C7FF119011A841880FAA11701199090A2B
:1025D0005170119991701399097BD1701399497BAE
:1025E000117113998968099008460892FDF788FFD0
:1025F00001229207594B0B9C0790204606911146E9
:10260000224602F0A7FD0B9A059010460A9B049102
:102610001946059A049BFDF7AFFE079A03901046F2
:10262000069B02911946039A029BFDF7A5FEFDF752
:102630008FFF119009984188089A51711199090AE0
:1026400091711199D17174E012A80421017013984D
:10265000407C0A2801905BD80198810001A25118A2
:102660008F46C04600F050B800F04EB800F04CB8AD
:1026700000F02EB800F01EB800F00EB800F008B858
:1026800000F046B800F040B800F03EB800F02EB8B8
:1026900013980021C1743CE01398007C0C2804D1ED
:1026A000FFE713980121C17403E013980021C1745E
:1026B000FFE72EE01398007C0B2804DBFFE713985C
:1026C0000121C17403E013980021C174FFE720E0E9
:1026D0001398007C0A2804DBFFE713980121C174DA
:1026E00003E013980021C174FFE712E01398007C07
:1026F000092804DBFFE713980121C17403E0139854
:102700000021C174FFE704E013980121C17400E0C7
:10271000FFE71398007C0FA908701398407C48705D
:102720001398807C88701398C07CC87001E0FFE724
:102730000EE01398C17C0A4801F0E2FF12A90A7862
:102740008B210FAB00900846194600F0C2FAFFE754
:1027500014B0B0BD80847E4100004040000039408C
:10276000CC5E0008F0B58DB01C4615460E460746F7
:1027700007900CA8069007980591069908700BA978
:10278000059808700AA90A7009A90B700C9908AA83
:1027900011700B9951700A9991700999D170952017
:1027A000042104911146049A03940295019600971E
:1027B00000F08FFA0DB0F0BD80B588B0079005A885
:1027C0000021017002A80172039102914F48007824
:1027D00007990978884205D0FFE70798007800F04C
:1027E0007DF8FFE7079800780028019008D0FFE700
:1027F0000198012847D0FFE701980F285BD059E0E6
:102800000798407AF1280AD1FFE73248FFF72CFEFB
:102810003148FFF70DFE05A80221017014E007986A
:10282000407AF2280AD1FFE72848FFF71DFE284822
:10283000FFF7FEFD05A80621017004E00798407A25
:1028400005A90870FFE7FFE706A8092101700798AE
:10285000C07802A9087007988078487007980079B6
:10286000887007984079C870079880790871079830
:10287000C07948710798007A88710598C8710798DF
:10288000807A087218E006A8062101700798407B3C
:1028900002A908700798007B48700798807B8870B1
:1028A0000798C07BC8700798007C08710798407C27
:1028B000487101E0FFE706E006A802788C2002A933
:1028C00000F007FAFFE708B080BDC0460F1D00000A
:1028D00021100000FFFF00000580000080B582B0DD
:1028E000014601AA10700198084B18701078002852
:1028F00005D1FFE70648002100F02DFAFFE78A2006
:1029000001A9012200F0E5F902B080BD23010020F9
:10291000AC06000080B584B00A46039002A801709E
:1029200003990078002301901846019B00921A46F3
:1029300000F093F904B080BD80B582B0014601AAD1
:10294000107096200123009111461A4600F0C1F93B
:1029500002B080BD10B58CB00B90002009902748C4
:102960000078C007002807D1FFE70B98FFF702FAAD
:10297000224801210170FFE70B99214801F0C0FEB8
:102980000B9908900846FDF7BBFD01229207002332
:102990001C4C07901846069111461A46059323468B
:1029A00002F0D8FB184A059B049018460391114683
:1029B000049A039BFDF7E0FC079A02901046069BE1
:1029C00001911946029A019BFDF7D6FCFDF7C0FD67
:1029D000099009A8C1780AAA117040885070099816
:1029E000000A90700998D070862004210091114649
:1029F000009A00F06EF90CB010BDC0462001002016
:102A0000B35E00080000394080847E4180B582B00A
:102A1000014601AA1070107840B2052200911146BB
:102A200000F050F802B080BD80B584B0014603AA22
:102A30001070802001230291114601921A4600F085
:102A400048F901980178002904D1FFE71C480121C9
:102A5000017003E01A4802210170FFE704B080BD55
:102A600080B582B0014601AA10709F200123009119
:102A700011461A4600F02DF902B080BD80B582B033
:102A80000190019940F2C060082200F078F900201E
:102A900002B080BD80B582B0019009480421017068
:102AA00001A84088694608700198000A487001989A
:102AB00088708320032200F00CF902B080BDC0466C
:102AC0002201002010B588B00A46034607AC2070EA
:102AD00006A80170002004920393FFF70FFA012863
:102AE00032D1FFE707A8007840B20F2808D1FFE7EE
:102AF0000620002101220292029BFFF733FE07E02D
:102B00000420002101220192019BFFF72BFEFFE729
:102B100007A8007840B20E2804DBFFE707A80E21C3
:102B200001700CE007A8007840B20321C943884235
:102B300004DCFFE707A8FD210170FFE7FFE7194864
:102B4000182100F008F921E00420072100220123C8
:102B5000FFF708FE07A8007840B2172804DBFFE75C
:102B600007A8162101700CE007A8007840B20321E5
:102B7000C943884204DCFFE707A8FD210170FFE795
:102B8000FFE70848382100F0E6F8FFE7079805A9B5
:102B90000870069848708E20022200F09AF808B05B
:102BA00010BDC046E708000080B584B0014603AA06
:102BB000108002A8002202700191FFF70DFA002890
:102BC00019D1FFE740F2B8600090FFF792FBFE21B9
:102BD000084002A908700398C005C00F029A10436C
:102BE00008700978009800F0B6F803A80178034847
:102BF00000F0B1F800E0FFE704B080BDB9060000C6
:102C000080B5FFE70448022100F0C7FC012801D18C
:102C1000FFE7F7E780BDC0460004004880B584B0F8
:102C2000FDF7E6FF0920C00602210390029100F0A3
:102C30007DFCC020FEF782F8002101900846FEF7D7
:102C40007DF8039900900846029900F077FCFFF7A1
:102C5000D7FFFDF7D9FF04B080BDB0B588B01346EB
:102C6000044607AD2870069105A8027003930294EC
:102C70000195FFF709F90920C006022100F056FC72
:102C80000E20FEF75BF801990A7800901046FEF7D7
:102C900055F804A900220A80FFE704A8008805A9C6
:102CA000097888420CDAFFE7069804A90988405C95
:102CB000FEF744F8FFE70498401C04A90880ECE7FD
:102CC0000920C006022100F039FCFFF799FF08B087
:102CD000B0BDB0B58AB01346044609AD287008915E
:102CE00007A8028006A8002101800593049403959B
:102CF00002900191FFF7C8F80920C006022100F0F8
:102D000015FC03980078FEF719F80199029A1180D2
:102D1000FFE706A8008807A9098888420CDAFFE7C0
:102D2000089806A90988405CFEF708F8FFE70698AE
:102D3000401C06A90880ECE70920C006022100F02B
:102D4000FDFB09A80078842803D0FFE7FFF758FFB0
:102D5000FFE70AB0B0BD10B586B00A46034605AC21
:102D6000208004A80170218801240390084603995B
:102D700002922246019300F002F806B010BDB0B5F1
:102D80008AB01346044609AD2880089107A802803E
:102D9000059304940395FFF777F80920C0060221F4
:102DA00000F0C4FB0D20FDF7C9FF03994A7802909B
:102DB0001046FDF7C3FF03990A7801901046FDF70E
:102DC000BDFF06A900220A80FFE706A8008807A920
:102DD000098888420CDAFFE7089806A90988405C50
:102DE000FDF7ACFFFFE70698401C06A90880ECE75A
:102DF0000920C006022100F0A1FBFFF701FF0AB085
:102E0000B0BD80B584B0014603AA10700291019252
:102E1000FDF7B2FE4620FDF771FE01980078FDF740
:102E20006DFEFDF7C9FE04B080BD000080B584B022
:102E300002900298401E000E002803D0FFE70120F8
:102E4000039013E00298401E0A4908600020C14325
:102E5000032201900846114600F0B4F90648019992
:102E600001600648072202600391FFE7039804B05F
:102E700080BDC04614E000E018E000E010E000E093
:102E800080B500F031FA80BD80B582B0204801687D
:102E9000012211430160FFE71D48006880070028F8
:102EA00001D4FFE7F8E71B4801681B4A11400160A5
:102EB00001681A4A1140016015480168184A11401A
:102EC0000160184801680F229143016016480168AB
:102ED00040F20312914301600168012213049943F7
:102EE00001600168D307994301601048016891436C
:102EF00001600F48002101600192009101F038FA51
:102F00000198C006009900F0A3FD02B080BDC04644
:102F100000100240041002400C00FF08FFFFC277BF
:102F2000FFFFF2FE2C10024030100240341002402D
:102F30000810024080B582B047485A4901F050FB62
:102F400000280CD0FFE7444801F088FAC0B201A97C
:102F50000A78531C0B709100084A50500CE03E4810
:102F6000514901F03DFB002805D0FFE73A484F49A1
:102F700001F016FBFFE7FFE702B080BD80020020F2
:102F800080B588B07F4800F001FF324800F0FEFEB7
:102F90000920C0060221012240F200230790069179
:102FA0000592049300F00EFB002007990390084659
:102FB0000399059A049B00F04DFB07980599049A24
:102FC00000F052FA40F20040079902900846069934
:102FD000059A029B00F0F6FA07980399059A029B5E
:102FE00000F038FB07980599029A00F03DFA1A485C
:102FF000019001F047FAE1204102019801F0D6F971
:103000000198039901F067FB0198039901F03FFBD8
:103010000198039901F017FB0198039901F097FAC1
:103020000198039901F07EFA0821019801F044FB10
:103030000421019801F01CFB0521019801F09CFA84
:103040001B20069900F0EAFC019801F045FA08B04F
:1030500080BDC0460E0600000038014080B582B039
:103060004A48104901F0BCFA00280CD0FFE7474855
:1030700001F0F4F9C0B201A90A78531C0B70910059
:103080000B4A50500CE04148074901F0A9FA0028CA
:1030900005D0FFE73D48054901F082FAFFE7FFE769
:1030A00002B080BD050005070700070704000407FC
:1030B0001004002080B588B0324800F067FE324826
:1030C00000F064FE0920C0060221012204230790BB
:1030D00006910592049300F075FA00200799039079
:1030E00008460399059A049B00F0B4FA07980599DD
:1030F000049A00F0B9F90820079902900846069949
:10310000059A029B00F05EFA07980399059A029BC4
:1031100000F0A0FA07980599029A00F0A5F91B485B
:10312000019001F0AFF942F28051019801F03EF9AF
:103130000198039901F0CFFA0198039901F0A7FAD9
:103140000198039901F07FFA0198039901F0FFF9C2
:103150000198039901F0E6F90198029901F0ACFA9F
:103160000198049901F084FA0521019801F004FA0C
:103170001C20069900F052FC019801F0ADF908B04E
:1031800080BDC0461105000011070000004400404A
:1031900081B001466A461070107840B200280DD404
:1031A000FFE76846007840B21F2102460A4001212D
:1031B000914040098000024A8150FFE701B070470A
:1031C00000E100E070B582B0024601AB18700091DA
:1031D000187840B2002817D4FFE701A8017849B257
:1031E0000322D2431140384BC958007840B28407BB
:1031F000E40EFF25A540A943009DAD01EDB2A54019
:1032000029431040C1501AE001A801780F22114053
:1032100008390323DB4319402A4C0959007840B28E
:103220008507ED0EFF26AE40B143009EB601F6B213
:10323000AE4031431040083818400151FFE702B05A
:1032400070BDC04670B582B0024601AB18700091E7
:10325000187840B2002817D4FFE701A8017849B2D6
:103260000322D2431140184BC958007840B284075A
:10327000E40EFF25A540A943009DAD01EDB2A54098
:1032800029431040C1501AE001A801780F221140D3
:1032900008390323DB4319400A4C0959007840B22E
:1032A0008507ED0EFF26AE40B143009EB601F6B293
:1032B000AE4031431040083818400151FFE702B0DA
:1032C00070BDC0461CED00E000E400E081B000905D
:1032D00000980B490860FFE709480068002801D002
:1032E000FFE7F9E701B0704705480068002805D0FE
:1032F000FFE703480168491E0160FFE77047C046C9
:10330000A0050020B0B585B013460C46049003A874
:10331000017002A90A700499454A15688D43156029
:1033200004992B4A15688D4315600499294A15683C
:103330008D4315600499284A15688D4315600078FF
:103340000028019004D0FFE70198012806D00BE087
:10335000049837490A6802430A6006E004981C4949
:103360000A6802430A6000E0FFE702A8007800282C
:10337000009008D0FFE7009801280FD0FFE70098E1
:10338000022816D020E0049812490A6802430A6015
:10339000049811490A6882430A6016E004980D49AE
:1033A0000A6882430A6004980B490A6802430A606B
:1033B0000BE0049807490A6802430A60049806492A
:1033C0000A6802430A6000E0FFE705B0B0BDC046EE
:1033D00004040140080401400C04014081B0009045
:1033E00000981249086001B07047C04684B002904E
:1033F0000E4800680299084001900D480068029943
:10340000084000900198002808D0FFE700980028A5
:1034100004D0FFE703A80121017003E003A8002105
:103420000170FFE703A8007804B07047140401405E
:103430000004014080B582B00190009101A801789C
:10344000074801F013F8FFE70548064901F04DF879
:10345000002801D1FFE7F7E7019802B080BDC04620
:10346000003801400707000086B0059004910392E0
:103470000598006A01900598406A009002A8002112
:103480000180FFE702A8008807281ED8FFE702A8EE
:1034900000880399C140C807002810D0FFE702A8A0
:1034A000018889000F228A40019991430191049972
:1034B000008880008140019808430190FFE7FFE702
:1034C0000298401C02A90880DCE702A808210180BC
:1034D000FFE702A800880F2820D8FFE702A800888D
:1034E0000399C140C807002812D0FFE702A801884D
:1034F000890020390F228A40009991430091049954
:103500000088800020388140009808430090FFE741
:10351000FFE70298401C02A90880DAE701980599A4
:10352000086200980599486206B0704782B0019021
:10353000009100980199886202B0704782B00190B2
:10354000009100980199886102B0704782B00190A3
:10355000009100980199C86202B0704780B584B0AC
:1035600000F008FC0920C0060021E022039002912F
:103570000192FFF779FF02210398029A019B00F064
:1035800021F8032203980299019B00F063F8039845
:103590000199FFF7CBFF04B080BD83B0019000918B
:1035A000019800690099084204D0FFE702A80121B0
:1035B000017003E002A800210170FFE702A8007873
:1035C00003B0704787B00690059104920393069864
:1035D000006801900698C068009002A80021018050
:1035E000FFE702A800880F282CD8FFE702A8008870
:1035F0000399C140C80700281ED0FFE702A8018830
:103600004900032213468B40019999430191059982
:1036100003885B009940019B0B430193018849009B
:103620008A400099914300910499008840008140AC
:10363000009808430090FFE7FFE70298401C02A9AA
:103640000880CEE701980699086000980699C8603E
:1036500007B0704710B586B00C46059004A80170FD
:10366000039202930078012806D1FFE7029805999A
:103670004A6802434A6005E0029805994A68824315
:103680004A60FFE705988068009001A8002101804A
:10369000FFE701A800880F281ED8FFE701A80088CF
:1036A0000299C140C807002810D0FFE701A801888F
:1036B000490003228A4000999143009103990088B0
:1036C00040008140009808430090FFE7FFE7019821
:1036D000401C01A90880DCE700980599886006B0C5
:1036E00010BD000070B5E0B000205F905EA90870CA
:1036F0003FA964221A90084611461992FCF717FD5B
:1037000026A81999FCF713FD25A81A99017024A879
:10371000017023A80170229120911F911CA80172B1
:103720001D911C9100F028FEFDF75AFD00F022FBD0
:10373000FFF714FF00F0A8FBFFF722FCFFF7BAFC2D
:10374000FDF730FDFEF700FBFEF776FA002804D106
:10375000FFE7844800F0D4FF03E0814800F0D0FF89
:10376000FFE7814840F20021FFF7F0FEFA20FDF765
:10377000A1FAFEF719FE7D48FEF7BBFD5EA90870B1
:1037800008781D2804D1FFE77A4800F0B9FF05E06A
:103790005EA80178764800F0B3FFFFE7FDF74CFE26
:1037A00075481890FEF7A5FDFB2108401899179061
:1037B00008461799FFF7CFFA704800F0A1FF70494B
:1037C000169008461591FFF7C5F86E48089000203E
:1037D000079006900590012104910390082202921F
:1037E00001910A2300931624149008461391214650
:1037F000149D12922A46139E119333461094FEF79D
:1038000045F813980990149908910791069105902D
:10381000049103910291129A019200911399119AC5
:10382000139BFDF7C5FEFA200390129802901099A1
:103830000191139A009254481599119A139B00F024
:103840005FFF52490978C90700290AD0FFE74F48AE
:103850004078C007002804D1FFE74E4800F050FF31
:1038600010E04A480078C00700280AD1FFE747481F
:103870004078C007002804D1FFE7454800F040FF2A
:10388000FFE7FFE7444800F03BFFFFE7FFE700F0FA
:10389000B5FA5DA908805AA858A9FEF711F90028C1
:1038A00011D1FFE73E485AA908220F900E92FCF76B
:1038B00025FC0F99083158AA0D90084611460E9A1A
:1038C000FCF71CFC03E0354800F01AFFFFE7344822
:1038D0005D9901745DA9CA78C2748A788274497846
:1038E00041741221FDF7CCFD00F088FA2D490C90AF
:1038F00008460C9900F004FFFFE72B4800780021F0
:10390000C00700280B9106D1FFE728480078012165
:1039100081430B91FFE70B98C007002801D0FFE718
:10392000EBE72148002101702048017023A80178AD
:103930001F4800F0E5FE40F2E8310A900846FDF726
:10394000B9F9FEF7A3FB1BA908701B9821A9087001
:1039500021984006410F174800F0D2FE97E7C04675
:10396000F15C0008E05C000800040048BC060000B0
:10397000355E0008C45D000889080000D35D0008BA
:1039800080CE341DB80B0000EE5D00080900002059
:103990002B5E0008E55D00086B5E0008035D000813
:1039A00020000020385D00087C0200207D020020FD
:1039B0008B5D0008165D000880B582B0FDF7DCF86D
:1039C0004720FDF79BF801A800210170FFE701A83F
:1039D0000078022818DCFFE7FCF7FCFF01A90A7851
:1039E0000D4B98540878032804D1FFE70120FDF718
:1039F0004BF803E00020FDF747F8FFE7FFE70198E9
:103A0000401C01A90870E2E7FDF7D6F80520FDF794
:103A100051F902B080BDC0461800002010B586B034
:103A20000A46034605AC207004A80170217849B20B
:103A30000078039008460399029201930094FFF7DF
:103A400001FC0098017848B2FFF7A2FB06B010BD58
:103A500082B00190009101980099034A11400843F7
:103A60000249086002B0704780FFFF1F08ED00E0C8
:103A70009CB001461BAA107000201A901990189053
:103A8000179016901590149013901290119010901A
:103A90000F900E900D900C900B90AD4A0A92AD4A8B
:103AA0000992089007900692059004920390AA4804
:103AB00000680C22104080081A901A980028029082
:103AC00008D0FFE70298012807D0FFE702980228F4
:103AD00006D045E0A348169045E0A248169042E083
:103AE0009D4801680F2292041140890C10910068D2
:103AF0000121C9060840C00E0F900F98012804D17B
:103B0000FFE71098113010900BE010980F2803D1A8
:103B1000FFE71020109003E01098801C1090FFE742
:103B2000FFE78D480068012109040840000C0E9051
:103B30000E9800280ED0FFE7894800680F21084042
:103B4000401C0D900D988749B1FBF0F0109941434E
:103B5000169104E01098814941431691FFE702E075
:103B600080481690FFE77C480168C9B209090C91AA
:103B70000C9907AA515C0B9116990B9AD14015919B
:103B8000016840F200721140090A0C910C9905AAD3
:103B9000515C0B9115990B9AD1401491006843F632
:103BA00000010840C00A0C900C9803A9085C0B9017
:103BB00015980B99C84013901BA800780528019010
:103BC00000D9C1E00198810001A251188F46C0467A
:103BD00000F00AB800F00BB800F00CB800F00DB817
:103BE00000F00EB800F081B816981790ADE0159867
:103BF0001790AAE014981790A7E013981790A4E0E4
:103C00005948006840F20011084088420FD0FFE791
:103C100055480068012109040840884203D0FFE7A5
:103C20005348129002E051481290FFE75AE04A4888
:103C3000006880B2800B19904B480068C00F189044
:103C40001998032800904BD80098810001A25118C0
:103C50008F46C04600F006B800F013B800F020B858
:103C600000F02FB81898002804D1FFE713984008F7
:103C7000129005E015980321B0FBF1F01290FFE7D8
:103C80002FE01898002804D1FFE7139880081290BD
:103C900005E015980521B0FBF1F01290FFE720E058
:103CA0001898002806D1FFE713980621B0FBF1F021
:103CB000129005E015980721B0FBF1F01290FFE794
:103CC0000FE01898002804D1FFE71398C00812905D
:103CD00005E015980921B0FBF1F01290FFE700E034
:103CE000FFE7FFE7129817902FE01F480068800752
:103CF000002803D1FFE71398119022E01A480068CA
:103D000003210840012803D1FFE71698119017E01E
:103D10001548006803210840022804D1FFE748F253
:103D2000000011900BE010480068032108400328B0
:103D300003D1FFE70B48119000E0FFE7FFE7FFE743
:103D4000FFE71198179000E0FFE717981CB0704745
:103D500006070809010203040410024000093D009F
:103D60002C10024000127A0030100240003FAB01DC
:103D7000809FD50080B5034800F008F8024800F0A5
:103D800005F880BD110500000C06000010B581B0DB
:103D900001466A46108010881F2203461340012204
:103DA0009A408009144BC4581443C45001B010BD4C
:103DB00010B581B001466A46108010881F22034664
:103DC000134001229A4080090B4BC4589443C450BD
:103DD00001B010BD10B581B001466A461080108850
:103DE0001F220346134001229A408009024BC45807
:103DF0001443C45001B010BD0010024080B586B01D
:103E00000120FEF7FEFF1020FEF7FBFFB420FCF7B9
:103E100051FFFFF7D1FD1948017805910599090275
:103E20004078081805900598FCF756FB144A154B86
:103E300002920193FCF7A0FAFCF7A8FB0490059806
:103E40000A210A46424310460091FCF745FB029ABC
:103E5000019BFCF791FAFCF799FB03900398FCF7A0
:103E60005DFB009990FBF1F25143401AFCF728FBEF
:103E700003900498FCF752FB06B080BD18000020A8
:103E8000333333333333F33F80B58AB0C7480290BE
:103E900000F08CF803A8019000F08AF9002004904B
:103EA00040F20411039140F200710591089040F234
:103EB000002106911021099107900298019900F0C4
:103EC000DDF80721029A0090104600F005F80298EC
:103ED00000F013F80AB080BD10B582B00A46019018
:103EE0006846018001990B6842F2000423430B608D
:103EF00000880199086102B010BD81B0009000985F
:103F0000016840221143016001B0704784B0029003
:103F10000298A649884205D1FFE70298C06803A924
:103F2000088016E00298406841F2000108400090C5
:103F30000098002808D0FFE702980C300190019803
:103F4000007803A9088004E00298C06803A90880EB
:103F5000FFE703A8008804B07047C04684B00A4653
:103F6000039002A8018003989049884205D1FFE799
:103F700002A800880399C86016E00398406841F2DF
:103F80000001084000900098002807D0FFE7039840
:103F90000C30019002980199087004E002A8008892
:103FA0000399C860FFE7FFE704B0704780B584B0AD
:103FB000039003983049884202900ED0FFE77B4877
:103FC0000299814211D1FFE740F20C300190FFF7D6
:103FD00001FF0198FFF7ECFE08E005480090FFF7AD
:103FE000F9FE0098FFF7E4FE00E0FFE704B080BDB3
:103FF0000E04000083B00190009101988068009940
:10400000084204D0FFE702A8012101702FE00198C7
:104010001949884227D1FFE7009800280FD1FFE710
:1040200001988068C004800F002804D0FFE702A830
:10403000002101701BE002A80121017017E0009827
:1040400000280FD1FFE7019880684005800F002805
:1040500004D0FFE702A80021017008E002A80121B6
:10406000017004E0FFE702A800210170FFE702A849
:10407000007803B07047C0460038004086B0049016
:10408000039100200090049800680290029843F287
:10409000400108400290049800680190019843F69E
:1040A00040010840019004984068009000983E4903
:1040B0000840009004983D4988423DD1FFE70398AD
:1040C00000680299014302910398406802990143F4
:1040D00002910398C0680299014302910398006914
:1040E00002990143029103984069029901430291A8
:1040F000039880690299014302910398806840F215
:10410000007188420BD0FFE70398806840F6007189
:10411000884204D0FFE705A80021017040E0039821
:10412000806840F600010840029901430291FFE7D0
:1041300002980499086029E00398006801990143F6
:104140000191039840680199014301910398C06867
:10415000019901430191039800690199014301917B
:10416000039840690199014301910398806901997D
:1041700001430191019804990860039880680099AF
:1041800001430091009804994860FFE70498C169D1
:1041900040F600029143C16105A801210170FFE7CB
:1041A00005A8007806B07047FFF00000003001401D
:1041B00081B0009000980021016000984160009853
:1041C00040F2007282600098C160009841610098DE
:1041D000816101B070470000B0B585B00A46034662
:1041E00004AC207003A8017001788907090F0F251E
:1041F0008D40E943029121780478A407240FA1405F
:104200000191007880080328009035D8009881003B
:1042100001A251188F46C04600F006B800F00EB853
:1042200000F016B800F01EB8029818490A6802405B
:104230000A6001980A6802430A601EE00298124967
:104240000A6802400A6001980A6802430A6014E0A2
:1042500002980C490A6802400A6001980A68024301
:104260000A600AE0029806490A6802400A6001985A
:104270000A6802430A6000E0FFE705B0B0BDC0462F
:1042800014000140100001400C00014008000140F2
:1042900083B0002002900190304801680122114350
:1042A0000160FFE70298401C02902C480068022140
:1042B00008400190FFE7019800210028009108D1F3
:1042C000FFE7029840F20051401A411E88410090D9
:1042D000FFE70098C0070028E4D1FFE71F48006807
:1042E0008007002802D4FFE7FFE7FEE71C480168CB
:1042F000022211430522914301601A4801680160BE
:1043000001680160016801600168174A114001609D
:104310000168164A11430160104801680122120623
:1043200011430160FFE70D4800688001002801D4B7
:10433000FFE7F8E70B480168032291430160016839
:10434000022211430160FFE70648006800070028C9
:1043500001D4FFE7F8E703B07047C0460010024001
:104360000020024004100240FFFFC2F700000408D2
:1043700080B5FFF78DFF80BD80B582B00A48006828
:1043800040F2E831B0FBF1F0FEF750FD002802D01A
:10439000FFE7FFE7FEE70020C143019008460199CF
:1043A000FEF710FF02B080BD1000002080B588B07D
:1043B00007900691002005900490039002900798C2
:1043C0004149884201900AD0FFE740480199814263
:1043D0000AD1FFE70520FFF74BFB059005E002201F
:1043E000FFF746FB059000E0FFE707980068000430
:1043F000002818D5FFE70598400006994A0880185C
:10440000B0FBF1F002900298134908400490029822
:104410000007400F039004A8008803A909880843F7
:104420000799C86016E0059806994A088018B0FBFD
:10443000F1F00290029808490840049002980F2178
:104440000840039004A8008803A909880843079935
:10445000C860FFE708B080BDF0FF000081B00090A9
:104460000098406A0649084001B0704782B0019048
:1044700000910098024908400199886202B0704793
:10448000FF01000080B584B0039003980E49884274
:1044900002900DD0FFE70D480299814210D1FFE74D
:1044A0000C480190FFF796FC0198FFF781FC08E0AB
:1044B00007480090FFF78EFC0098FFF779FC00E0BA
:1044C000FFE704B080BDC046004400400038014012
:1044D000110400000E03000081B0009000980168F4
:1044E00001221143016001B0704783B00A46019078
:1044F00068460180019903889B09C95800881F23D9
:104500001840C140C807002804D0FFE702A80121D5
:10451000017003E002A800210170FFE702A8007803
:1045200003B0704782B001900091019801680122A8
:10453000914301600198816840F2002291438160BB
:10454000009801998A6802438A6002B0704782B07D
:104550000190009101980168012291430160019846
:10456000816840F2001291438160009801998A6845
:1045700002438A6002B0704710B582B00A460190CB
:104580006846018000881F2103460B4001219940A5
:10459000019B80091C580C431C5002B010BD000048
:1045A00082B00190009100980C49884208D1FFE741
:1045B0000198D021425848F200039A4342500BE040
:1045C00000981F2109040840000C01218140019836
:1045D000026A0A430262FFE702B0704709340F34EF
:1045E00010B585B0039002910020019000900398CF
:1045F00002A909888909405802991F221140012304
:104600001C468C402040019003980299890D405827
:10461000029912041140090C8B4018400090009838
:10462000002808D0FFE70198002804D0FFE704A87D
:104630000121017003E004A800210170FFE704A834
:10464000007805B010BD82B001900091019801681A
:104650000122914301600198016840F20062914398
:104660000160009801990A6802430A6002B070472D
:1046700082B0019000910198016804229143016089
:10468000009801990A6802430A6002B0704782B03C
:104690000190009101980168012291430160019805
:1046A000416843F2000291434160009801994A68D1
:1046B00002434A6002B0704782B0019000910198B5
:1046C0000168082291430160009801990A68024339
:1046D0000A6002B0704782B00190009101980168B1
:1046E0000122914301600198016841F20002914367
:1046F0000160009801990A6802430A6002B070479D
:104700000FB410B503A9044B044A029800F086F9CF
:1047100010BC08BC04B01847353400080000002065
:104720002021020C01D010211046020A01D01046AF
:104730000839020901D01046091F820801D010462D
:10474000891E420801D0881E7047081A7047000071
:104750004900CA020243100000D004204A0D01D0D3
:1047600001221043044A490D914201D1022108431C
:10477000012800D105207047FF070000F8B5044666
:104780004F1EC8000838211815461E46086849689B
:104790003A4606239A4310D02A463346FBF784FD57
:1047A0003A46D200083AA3181A687F1E5B68FBF7E6
:1047B000C9FC06223B469343EED1022F23D0042F9F
:1047C00011D0062F2FD12A463346FBF76DFDE36A41
:1047D000A26AFBF7B7FC2A463346FBF765FD636A1E
:1047E000226AFBF7AFFC2A463346FBF75DFDE3691F
:1047F000A269FBF7A7FC2A463346FBF755FD636920
:104800002269FBF79FFC2A463346FBF74DFDE36820
:10481000A268FBF797FC2A463346FBF745FD636821
:104820002268FBF78FFCF8BD002210B51346104636
:104830000149FBF7A1FD10BD0000F03F10B5FBF7EB
:1048400081FC10BD002210B5134610461146FBF73F
:1048500093FD10BD10B50721024A00200907FBF7A0
:10486000CBFF10BD01030000034A10B50020110763
:10487000FBF7C2FF10BD000001FDFFFF02E008C80A
:10488000121F08C1002AFAD170477047002001E0CA
:1048900001C1121F002AFBD17047000001490860C6
:1048A0007047000004000020F0B51FB486B00998DE
:1048B000089A030D0021024314D05148514A181898
:1048C000504305141198012810981AD0281A401C3A
:1048D00000264D4F4D49009601910490002812DAB0
:1048E000444211E01198012449A3012801D11098F4
:1048F000C1430698119A84600360C26041600BB0A6
:10490000F0BD4042E4E70446210500203F4A001C78
:1049100051410391029012E0E00707D032463B4636
:1049200001990098FBF7C0FC0191009032463B468C
:1049300010461946FBF7B8FC06460F466410002CDB
:10494000EAD10498039B0028029A0999089806DA8C
:10495000FBF7AAFC019B009AFBF7A6FC05E0FBF71E
:104960000BFD019B009AFBF707FD04460E46002253
:10497000284BFBF777FF03D80020C043014607E030
:104980000022254B20463146FBF7DCFBFBF74AFFB4
:10499000102409E0002C0ADB0A220023FBF728FE82
:1049A000079B30321A55641E02460A43F2D1112287
:1049B000641C079B121B1C19119B012B03D00123A4
:1049C00008430ED10AE0084304D0112010900020C3
:1049D000119077E71098151A6D1E0BE0109882421F
:1049E00002DD00236D1C03E0824201DA00236D1E0C
:1049F000002BEED0069811998260C16030C07EE72E
:104A000001FCFFFF104D0000000014400000F03FCB
:104A1000300000000000F0430000E03FFFB597B019
:104A20000646002518E2252877D100242746FD49AF
:104A3000049400E00443761C32780120203A904030
:104A40000842F7D130782A280ED002223078014669
:104A50003039092916D804990A23594330394018A6
:104A60001443761C0490F1E7189802C8049118903A
:104A7000002904DA01204003044348420490022044
:104A80000443761C30782E2814D104200443707817
:104A9000761C2A2809D11898761C80C8189009E03D
:104AA0000A214F43303FC719761C30780146303910
:104AB0000929F5D930786C2810D006DC4C281AD09A
:104AC00068280ED06A2817D104E0742813D07A28F9
:104AD00012D110E00120400504430CE0012109053A
:104AE00001E0032109050C437178814203D10120C3
:104AF00000052418761C761C3078119066280BD09F
:104B000013DC58287DD009DC00287BD04528F6D05E
:104B10004628F4D047281AD1A5E118E0632835D0FB
:104B2000642870D0652812D19DE170286CD008DC13
:104B30006728F1D069287BD06E280DD06F2806D168
:104B4000BAE073282ED0752871D0782859D01A9AD7
:104B5000199990476D1C7EE16002400F022809D030
:104B600003280DD00428189801680DD00D60001D91
:104B7000189070E11898EA1701680D604A60F6E72E
:104B8000189801680D80F2E70D70F0E718986A46F2
:104B900001781172001D18900020507202A8009038
:104BA000012005E0189802C8189000200091C04329
:104BB00061070DD5002101E00199491C0191B9421D
:104BC00012DA8142F8DB009A515C0029F4D10BE043
:104BD000002101E00199491C01918142FADB019A0F
:104BE0000099895C0029F5D1019904981A9B471A0C
:104BF00021463846199A00F097FA0199401945184C
:104C00000BE04FE02CE113E04EE0009800990078B3
:104C1000491C00911A9A199990470198401E0190D9
:104C2000401CF2D1214638461A9B199A10E137E010
:104C30000A200021009001916002410F022907D053
:104C4000189A01CA1892C2179446032908D00AE09C
:104C50001898C01DC108C90005C91891944607E0FD
:104C600000B2C2179446042902D140B2C1178C4643
:104C700000226146944506DA0A46002140429141ED
:104C80008C462D2102E0210504D52B216A461173A3
:104C9000012103E0E10701D02021F7E7029155E06F
:104CA0000A200AE0102008E01020009000210420D3
:104CB00004430191082703E008200021019100909E
:104CC0006002410F022907D0189A01CA18920022E7
:104CD0009446032908D008E01898C01DC108C900EF
:104CE00005C91891944603E080B2042900D1C0B2EE
:104CF00000210291210729D51199702906D0009A27
:104D00001021019B4A401A4305D00EE040216A461B
:104D10001173012108E06146014306D030216A4643
:104D200011731199517302210291009A0821019B7C
:104D30004A401A430AD16146014301D1610705D5B2
:104D400030216A46117301217F1E02911199582961
:104D500004D035A10E910DA90D910DE037A1F9E711
:104D60006146019B009AFBF743FC0E9B8C469B5CC3
:104D70000D9A521E0D92137061460143F0D10D98A9
:104D800005A9081A20300190600703D5012000040E
:104D9000844300E001270198874201DD381A00E0D2
:104DA0000020019900904118029809180498401AAF
:104DB0000490E00306D421461A9B199A049800F047
:104DC000B3F94519002706E003A81A9AC05D19999E
:104DD00090476D1C7F1C02988742F5DBE0030CD5E1
:104DE00021461A9B199A049800F09EF9451904E08F
:104DF0001A9A3020199990476D1C0099481E00900E
:104E00000029F5DC08E00D980D990078491C0D91FA
:104E10001A9A199990476D1C0199481E0190002912
:104E2000F1DC63E1092801003031323334353637A3
:104E300038396162636465660000000030313233E6
:104E40003435363738394142434445460000000086
:104E500000F05AF94519761C3078002800D0E2E5B8
:104E600028461BB0F0BD600700D406271898C01D67
:104E7000C108C90048680A680831C30FDB071891E8
:104E8000190001D09CA108E0210501D59BA104E0F7
:104E9000E10701D09AA100E09AA1430011985B08B4
:104EA000109165280CD006DC452809D046281DD075
:104EB000472841D141E0662818D067283CD13CE022
:104EC0000021112F01DB112000E0781C01910090DE
:104ED00008A911A8FFF7E8FC139905910021119A80
:104EE00015927F1C12980197009150E00120C00795
:104EF00003900120019008A9009711A8FFF7D4FCA6
:104F0000139A149905920022119B009212981593FE
:104F1000059A0192002901D0104602E0791C401840
:104F20000190381A01D5019804E04042401E0090DB
:104F3000781C0190C01B029043E0012F00DA01278A
:104F40000021112F01DD112000E038460191009071
:104F500008A911A8FFF7A8FC13990591119A00213F
:104F6000129815920091019721070CD40599B94226
:104F700001DB019900E00191012904DD159A491E28
:104F8000515C302906D0B84201DA011D05DA012151
:104F9000029115E00199491EEDE7002805DC009912
:104FA000411800910199091A03E0019A411C9142AC
:104FB00000DD01910099401A401C02900120C007B9
:104FC0000390200706D402990198814202DB002059
:104FD000C043029000206946C87707AF01210398BB
:104FE0000337C907884224D0022011902B20129049
:104FF000039800280CDA404203902D20129007E01D
:105000000A210398FBF7DEFA30317F1E03903970D6
:105010001199481E11900029F2DC03980028EFD165
:10502000791E129808703078202108404530BF1E44
:10503000387006A8C01BC01D039010980078002887
:1050400000D00120019941180298C017091803984F
:1050500009180498401A401E0490E00306D4214623
:105060001A9B199A049800F05FF845191098007877
:10507000002803D01A9A199990476D1CE00324D593
:1050800021461A9B199A049800F04EF845191CE025
:105090000098002807DB00990598884203DD1598E1
:1050A000405C199901E0199930201A9A90470098AC
:1050B0006D1C401C00900298401E0290002804D1F4
:1050C0001A9A2E20199990476D1C0199481E01903B
:1050D0000029DDDC05E038781A9A7F1C1999904781
:1050E0006D1C0399481E03900029F4DC21461A9B8D
:1050F000199A0498ACE600002D0000002B00000077
:105100002000000000000000F8B5044600251E46FF
:105110001746880404D405E039462020B0476D1CAA
:10512000641EF9D52846F8BDFFB50446002581B0B8
:105130001E46C80301D5302700E02027880404D587
:1051400005E038460399B0476D1C641EF9D5284622
:1051500005B0F0BDF0B51FB496B084460C460246CB
:10516000199D189803904900680063004908400899
:105170000193002A01D0012600E000269E19FE4B73
:10518000F6185B109E422BD36E00039F0296002FF1
:1051900000D00127F719F84EF84BBE199E421FD3D5
:1051A000039E0346F64F334309D03B469C4201D150
:1051B000002A04D0019B002A05D0012604E000202B
:1051C00039461BB0F0BD00269E19EE4B9E4207D813
:1051D000039F029E002F00D00127F6199E4207D997
:1051E0002B4660462146189AFFF728FB1BB0F0BDFE
:1051F0000023002C29DAE44EB04226DAE34EB04216
:1052000001DB022321E0DE4EB0421EDBE04E070D43
:10521000BE19142E09DD3427BF1B039EFE400196E4
:10522000BE40039FBE420BD00FE0039F002F0CD166
:105230001427BF1B0646FE400196BE40864204D19D
:10524000019BDE07F60F02239B1B0E46164318D167
:10525000002D16DA002C03D0022B01D0012B06D032
:105260000220FFF71BFBFFF7DFFA1BB0F0BD0220A7
:10527000FFF714FBFFF7D8FA0122D20751401BB009
:10528000F0BD039E002E61D1BF4EB04220D1C14877
:10529000844201D1002A08D0B948814209DB002D9F
:1052A00010DB189829461BB0F0BD0020B4491BB094
:1052B000F0BD002D06DA01222946D2071898514088
:1052C0001BB0F0BDB4497944086849681BB0F0BD13
:1052D000AB4FB84225D1002D1FDA002904D0B142CE
:1052E00012D1002A09D018E0002A72D1A649E20F93
:1052F0000020D20711431BB0F0BD0020E20F014691
:10530000D20711431BB0F0BDB14206DA234600209C
:105310003946FBF731F81BB0F0BD104621461BB0F3
:10532000F0BDB14212DA0126B607B54203D12346D9
:1053300010461946FEE3994EB54207D1261E05DBFD
:105340001046314600F004FC1BB0F0BD67007F083A
:105350001646002A40D100290AD08B4A914229D111
:10536000002C0EDD002D1CDB002011461BB0F0BD13
:10537000022B16D0002C14D0012B12D1002C14DBE0
:105380000FE0002C28DA002D09DB012B03D00020D0
:105390007D491BB0F0BD002081491BB0F0BD012B41
:1053A00003D0002001461BB0F0BD00200121C90739
:1053B0001BB0F0BD724A91420ED1002C01DA002BD5
:1053C00017D0022B06D00020C043FBF785F81BB096
:1053D000F0BD90E20120F8E7E217521C94461A4310
:1053E00007D000220892664C62465B1E1A4307D023
:1053F00009E00120FFF752FAFFF724FA1BB0F0BDD5
:105400000022644C0892674A90427DDD664B674AF1
:1054100098421FDD914202DC002D05DB4DE058482B
:10542000814217DB002D48DD0220FFF737FAFFF736
:1054300011FA05460E460022534B21460898FAF70A
:1054400033FF084671004908C00FC00701432846D2
:105450001BB0F0BD914215DA002D2EDA0220FFF7C5
:105460001DFAFFF7F7F905460E460022464B214686
:105470000898FAF719FF72005208C80FC0070243D4
:10548000114617E03E4B994223DD002D15DD022029
:10549000FFF704FAFFF7DEF905460E4600223A4B05
:1054A00021460898FAF700FF084671004908C00F26
:1054B000C007014328461BB0F0BD0220FFF7EEF9FC
:1054C000FFF7D2F949004908E20FD20711431BB098
:1054D000F0BD002230463946FAF7D8FE01220546D3
:1054E0000E46D243FBF788F9314A324BFAF7D4FE25
:1054F0002A463346FAF7D8FE0022284BFAF7CCFEAC
:1055000007462A46334600E064E0039110461946F8
:10551000FAF7CAFE3A46039BFAF7C6FE074603228D
:1055200009915207244B28463146FAF7BDFE0791F0
:105530000C90224A204B38460999FAF7B5FE0746E7
:1055400001911F4A1F4B28463146FAF7ADFE3A46F5
:10555000019BFAF79BFE07460B4602460991079905
:105560000C98FAF7EFFD00250E462846079B0C9A8B
:10557000FAF78CFE3A4627E0FFFF1F00FFFF0F00FF
:105580000000F03F0000E0FF0000F07F000040431B
:1055900001FCFFFF0000F0BF560900000000E03FE3
:1055A0000000F0FF0000E0410000F043FFFFEF3F8C
:1055B000555555555555D53F4715F73FFE822B6537
:1055C00044DF5DF80BAE543E099BFAF765FE0246D8
:1055D0000B4652E1012500202D05A94207DA3522AC
:1055E00030463946FBF708F906463420C0430A1511
:1055F0001218FE48101803900803FD49000B0143E0
:105600000F46FC49884201DC002003E0FA49884249
:1056100002DA0120119005E0002011900398401C4F
:105620007F1B039011980597C200F4480F927844AD
:10563000801843680268394630460D930292FAF7A3
:1056400025FE07910C9030460D9B029A0599FAF7BA
:1056500079FD02460B460020E549FAF78DFE0991D7
:105660000490079B0C9AFAF71FFE129000201090EE
:10567000E3480D46784400680E90012178104907F0
:10568000084311990D9B890440180121C90447184A
:105690003946029A0E98FAF7F9FD3246059BFAF759
:1056A000FBFD02460B4629461098FAF7FDFD06461B
:1056B00002913B4629460E9A1098FAF7F5FD079B92
:1056C0000C9AFAF7E9FD3246029BFAF7DFFD099BD7
:1056D000049AFAF7E9FD0591129A0A902B461046B2
:1056E0001946FAF7E1FD06460246C6480F460B4644
:1056F00006217844FFF742F832463B460091049079
:1057000010461946FAF7D0FD009B049AFAF7CCFD33
:1057100006460F462B461946129A1098FAF712FDC4
:10572000059B0A9AFAF7C0FD32463B46FAF70AFD96
:10573000109A079104902B4610461946FAF7B4FDCB
:10574000B14E0022334609910290FAF7FBFC079B09
:10575000049AFAF7F7FC0020074602463346009108
:10576000FAF794FD099B029AFAF790FD079B049AB9
:10577000FAF792FD06460D913A462946009B10988D
:10578000FAF792FD07910C902B463046129A0D992C
:10579000FAF78AFD05460E463A46009B05990A9897
:1057A000FAF782FD33462A46FAF7CCFC02460B464E
:1057B0000746099107990C98FAF7C4FC00250E4694
:1057C0002846079B0C9AFAF761FD3A46099BFAF7BF
:1057D00063FD07460722099152078C4B3146284644
:1057E000FAF762FD07910090894A884B384609997B
:1057F000FAF75AFD07460191864A874B31462846FB
:10580000FAF752FD3A46019BFAF79CFC834B7B4426
:105810000F9A9B181A685B68FAF794FC029009913A
:105820000398FAF759FE05910490099B029A07998B
:105830000098FAF787FC7A4B7B440F9A9B181A68FA
:105840005B6817460393FAF77DFC059B049AFAF709
:1058500079FC0E462846059B049AFAF717FD3A464E
:10586000039BFAF713FD079B009AFAF70FFD099BBC
:10587000029AFAF711FD02460B46199900200C9086
:105880000F461898FAF710FD029104903B460C9AC7
:1058900019991898FAF7FAFC2A463346FAF704FDE4
:1058A000029B049AFAF74EFC09910E902A46334661
:1058B00039460C98FAF7F8FC06460F46099B0E9AF3
:1058C000FAF740FC574A0D46914220DB5242AA1893
:1058D000024310D132463B46FAF7D8FC04900391BC
:1058E000514A524B09990E98FAF72CFC039B049AE3
:1058F000FAF7B8FF1ED20220FEF7D0FFFEF7AAFF8C
:1059000049004908E20FD20711431BB0F0BD6A00FD
:10591000474B52089A420DD3464AAA18024300D078
:10592000CBE532463B46FAF7B1FC099B0E9AFAF7F3
:1059300099FFF5D96800002340082C490393020D14
:105940003D4B5218984223DD01200005521CD040E7
:1059500042195000400D40183849794409681346EF
:105960008C463749C1408B4312030121120B0905B4
:1059700051181422101AC1400391002D01DA484237
:105980000390624630463946FAF780FC06460F46D9
:1059900032463B4609990E98FAF7D4FB00252A4671
:1059A000284B28460591FAF77FFC07910C90264A70
:1059B000264B28460599FAF777FC0091029032466B
:1059C0003B4628460599FAF761FC099B0E9AFAF7BF
:1059D00063FC1F4A1F4BFAF767FC009B029AFAF719
:1059E000B1FB07460B460246099135E001FCFFFF7B
:1059F0000000F03F8E9803007AB60B0066050000A9
:105A0000A8050000D20400000000084009C7EE3FCE
:105A1000FD033ADCF5015B14E02F3EBEA603000057
:105A20006C03000000009040FE822B654715973CF8
:105A300000CC904000346F3F0000E03FC202000005
:105A4000FFFF0F00432EE63F396CA80C615C20BEBF
:105A5000EF39FAFE422EE63F07990C98FAF772FBEF
:105A600005460E46079B0C9AFAF710FC3A46099B2E
:105A7000FAF712FC09912A4633460E901046194651
:105A8000FAF712FC074602462F480B4605910521FE
:105A90007844FEF773FE3A46059BFAF705FC2A4662
:105AA0003346FAF7F9FB0746019128463146099B30
:105AB0000E9AFAF7F9FB099B0E9AFAF743FB0123BA
:105AC00004910C9000229B0738460199FAF7DEFBFF
:105AD00005910E903A4628463146019BFAF7E4FBC1
